:100000009BC1000007C60000DAC50000ADC50000B6
:1000100080C5000053C5000026C50000F9C40000DB
:10002000CCC40000A6C60000A4C60000A2C6000002
:10003000B3C10000B1C10000AFC10000ADC10000FC
:10004000ABC10000A9C10000A7C10000A5C100000C
:10005000A3C10000A1C100009FC1000064C4000052
:100060009BC100007DC3000052C3000095C1000089
:1000700093C1000091C100008FC100008DC100003C
:100080008BC1000089C1000087C1000085C100004C
:1000900083C1000081C100007FC100007DC100005C
:1000A0007BC1000079C1000077C1000075C100006C
:1000B00073C1000071C100006FC100006DC100007C
:1000C0006BC1000069C1000067C1000065C100008C
:1000D00063C1000061C100005FC100005DC100009C
:1000E0005BC10000F502F802E702EB02F1022F0308
:1000F000FC02000306030A030E03140318031C0387
:100100002F03220326032A0300407A10F35A00A08B
:10011000724E18090010A5D4E80000E876481700D0
:1001200000E40B54020000CA9A3B000000E1F50510
:10013000000080969800000040420F000000A0865A
:1001400001000000102700000000E803000000008C
:100150006400000000000A00000000000100000030
:1001600000002C76D888DC674F0823DFC1DFAE594A
:10017000E1B1B796E5E3E453C63AE651997696E8DD
:10018000E6C28426EB898C9B62ED407C6FFCEFBC61
:100190009C9F40F2BAA56FA5F490055A2AF75C938C
:1001A0006B6CF9676DC11BFCE0E40D47FEF520E6C2
:1001B000B500D0ED902E0300943577050080841EA5
:1001C000080000204E0A000000C80C333333330F00
:1001D000986E12831141EF8D2114893BE65516CF9D
:1001E000FEE6DB18D1844B381BF77C1D901DA4BBA9
:1001F000E424203284725E228100C9F124ECA1E55E
:100200003D2700002200250028002B002E00310091
:10021000340002010000050108010B01000020006C
:100220002300260029002C002F00320000010000CE
:1002300003010601090100000A0B02090C0D0E085A
:10024000070304010000000000000000000000009F
:10025000000000000000000000000000000000009E
:10026000000012111000000000000000000000005B
:10027000000000000000000000000000000021005D
:10028000240027002A002D00300033000101000067
:10029000040107010A010102102020080810204073
:1002A000102040800201020108040201010204083A
:1002B00010204080804020100804020180040201C8
:1002C0008040201008040201080402010102040811
:1002D000102040800102040810204080050505051B
:1002E000070508080808020202020A0A08080404AE
:1002F00004040101010101010101030303030303DC
:100300000303040707070C0C0C0C0C0C0C0C02026A
:10031000020206060606060606060B0B0B0B0B0B67
:100320000B0B1112131415160A0B0C0D0E0F0001F6
:1003300002030405560C3A0911241FBECFEFD1E287
:10034000DEBFCDBF00E00CBF23E0A0EDB2E001C0F6
:100350001D92A53CB207E1F712E0A0E0B2E0EEEF9B
:10036000F4E200E00BBF02C007900D92A03DB10780
:10037000D9F711E0CBE9D1E000E006C021970109EF
:10038000802FFE010E945110CA39D10780E0080772
:10039000A9F77AD70C946E1233CEFC01538D448D9D
:1003A000252F30E0842F90E0821B930B541710F020
:1003B000CF96089501970895FC01918D828D98172D
:1003C00061F0828DDF01A80FB11D5D968C91928D39
:1003D0009F5F9F73928F90E008958FEF9FEF089536
:1003E000FC01918D828D981731F0828DE80FF11DFF
:1003F000858D90E008958FEF9FEF0895FC01918D1A
:10040000228D892F90E0805C9F4F821B91098F7312
:100410009927089588EE92E0F1DF21E0892B09F415
:1004200020E0822F0895FC01848DDF01A80FB11D0B
:10043000A35ABF4F2C91848D90E001968F7399271A
:10044000848FA689B7892C93A089B1898C918370F8
:1004500080648C93938D848D981306C00288F389F1
:10046000E02D80818F7D80830895EF92FF920F931E
:100470001F93CF93DF93EC0181E0888F9B8D8C8D50
:10048000981305C0E889F989808185FD25C0F62E7D
:100490000B8D10E00F5F1F4F0F731127E02E8C8D17
:1004A000E8120BC00FB607FCFACFE889F989808102
:1004B00085FFF5CFCE01B7DFF2CF8B8DFE01E80FC0
:1004C000F11DE35AFF4FF0829FB7F8940B8FEA8932
:1004D000FB89808180620AC09FB7F894EE89FF890A
:1004E0006083E889F98980818370806480839FBFFD
:1004F00081E090E0DF91CF911F910F91FF90EF90FD
:100500000895CF93DF93EC01888D8823C1F0EA89A9
:10051000FB89808185FD05C0A889B9898C9186FDFC
:100520000EC00FB607FCF5CF808185FFF2CFA889FA
:10053000B9898C9185FFEDCFCE0175DFE8CFDF91D2
:10054000CF91089580E090E0892B19F063DF81114D
:1005500025C080E090E0892B41F080E090E0892B7D
:1005600021F00E94000081111CC080E090E0892BE6
:1005700041F080E090E0892B21F00E940000811181
:1005800013C080E090E0892BA1F080E090E0892BFF
:1005900081F00E94000081110AC008950E940000AD
:1005A000D8CF0E940000E1CF0E940000EACF0C9457
:1005B0000000089590E0FC013197E231F10508F068
:1005C0004EC08827EE58FF4F8F4F0C9451108091EA
:1005D00080008F7703C0809180008F7D80938000A2
:1005E000089580918000877FF9CF84B58F7702C00E
:1005F00084B58F7D84BD08958091B0008F7703C04E
:100600008091B0008F7D8093B0000895809190001C
:100610008F7707C0809190008F7D03C080919000FC
:10062000877F8093900008958091A0008F7707C006
:100630008091A0008F7D03C08091A000877F809370
:10064000A0000895809120018F7707C0809120013C
:100650008F7D03C080912001877F809320010895C2
:10066000CF93DF93282F30E0F901EA5CFD4F8491AE
:10067000F901EA56FD4FD491F901E452FD4FC491BE
:10068000CC2389F0811196DFEC2FF0E0EE0FFF1FF5
:10069000E45EFD4FA591B491EC91ED2381E090E0F3
:1006A00021F480E002C080E090E0DF91CF910895D6
:1006B000089580E090E00895CF9383E0D1DFC82FC4
:1006C00082E0CEDFC8130CC080911002909111021D
:1006D000A0911202B09113020197A109B1090BC0B8
:1006E0008091100290911102A0911202B091130218
:1006F0000196A11DB11D8093100290931102A09349
:100700001202B0931302CF9108950E945A121F92C1
:100710000F920FB60F9211240BB60F922F933F93A7
:100720004F935F936F937F938F939F93AF93BF93F9
:10073000EF93FF9388EE92E076DEFF91EF91BF9109
:10074000AF919F918F917F916F915F914F913F9169
:100750002F910F900BBE0F900FBE0F901F9018950A
:100760001F920F920FB60F9211240BB60F922F9378
:100770008F939F93EF93FF93E091F802F091F9022A
:100780008081E091FE02F091FF0282FD12C0908113
:10079000809101038F5F8F7320910203821751F0C4
:1007A000E0910103F0E0E851FD4F958F8093010344
:1007B00001C08081FF91EF919F918F912F910F90B8
:1007C0000BBE0F900FBE0F901F9018951F93CF93E5
:1007D000DF93282F30E0F901EA5CFD4F8491F901A5
:1007E000EA56FD4FD491F901E452FD4FC491CC2358
:1007F000B9F0162F8111DEDEEC2FF0E0EE0FFF1FB7
:10080000EE5FFD4FA591B4919FB7F894111104C00C
:100810008C91D095D82302C0EC91DE2BDC939FBF46
:10082000DF91CF911F910895CF93DF93EC0160E0AA
:100830008E81CCDF61E08E81C9DF60E08E81C6DF12
:100840008BE891E00197F1F7DF91CF910895CF9375
:10085000DF9390E0FC01EA56FD4F2491FC01E45245
:10086000FD4F8491882361F190E0880F991FFC016E
:10087000E458FD4FC591D491FC01EE5FFD4FA59169
:10088000B491611109C09FB7F894888120958223A3
:100890008883EC912E230BC0623061F49FB7F894EB
:1008A0008881322F309583238883EC912E2B2C93D3
:1008B0009FBF06C08FB7F894E8812E2B28838FBF87
:1008C000DF91CF9108958230910538F0880F991FFC
:1008D000880F991F05970197F1F708953FB7F8948E
:1008E0008091D7029091D802A091D902B091DA02FA
:1008F00026B5A89B05C02F3F19F00196A11DB11D7B
:100900003FBFBA2FA92F982F8827820F911DA11DB5
:10091000B11DBC01CD0142E0660F771F881F991FF2
:100920004A95D1F708951F920F920FB60F92112496
:100930002F933F938F939F93AF93BF938091D30255
:100940009091D402A091D502B091D6023091D202FA
:1009500023E0230F2D3720F40196A11DB11D05C002
:1009600026E8230F0296A11DB11D2093D202809389
:10097000D3029093D402A093D502B093D602809173
:10098000D7029091D802A091D902B091DA020196D3
:10099000A11DB11D8093D7029093D802A093D902D4
:1009A000B093DA02BF91AF919F918F913F912F91B8
:1009B0000F900FBE0F901F9018951F920F920FB6B9
:1009C0000F9211240BB60F922F933F934F935F9387
:1009D0006F937F938F939F93AF93BF93EF93FF9307
:1009E000E0910E02F0910F021995FF91EF91BF91E6
:1009F000AF919F918F917F916F915F914F913F91B7
:100A00002F910F900BBE0F900FBE0F901F90189557
:100A10001F920F920FB60F9211240BB60F922F93C5
:100A20003F934F935F936F937F938F939F93AF9376
:100A3000BF93EF93FF93E0910C02F0910D02199593
:100A4000FF91EF91BF91AF919F918F917F916F91A6
:100A50005F914F913F912F910F900BBE0F900FBE62
:100A60000F901F9018951F920F920FB60F9211249E
:100A70000BB60F922F933F934F935F936F937F9398
:100A80008F939F93AF93BF93EF93FF93E0910202F5
:100A9000F09103021995FF91EF91BF91AF919F9152
:100AA0008F917F916F915F914F913F912F910F9017
:100AB0000BBE0F900FBE0F901F9018951F920F92B4
:100AC0000FB60F9211240BB60F922F933F934F93B3
:100AD0005F936F937F938F939F93AF93BF93EF93A6
:100AE000FF93E0910002F09101021995FF91EF91BF
:100AF000BF91AF919F918F917F916F915F914F9136
:100B00003F912F910F900BBE0F900FBE0F901F9033
:100B100018951F920F920FB60F9211240BB60F92D9
:100B20002F933F934F935F936F937F938F939F93F5
:100B3000AF93BF93EF93FF93E0910A02F0910B0202
:100B40001995FF91EF91BF91AF919F918F917F91F7
:100B50006F915F914F913F912F910F900BBE0F902E
:100B60000FBE0F901F9018951F920F920FB60F9205
:100B700011240BB60F922F933F934F935F936F9374
:100B80007F938F939F93AF93BF93EF93FF93E091E6
:100B90000802F09109021995FF91EF91BF91AF9171
:100BA0009F918F917F916F915F914F913F912F9185
:100BB0000F900BBE0F900FBE0F901F9018951F92B5
:100BC0000F920FB60F9211240BB60F922F933F93F3
:100BD0004F935F936F937F938F939F93AF93BF9345
:100BE000EF93FF93E0910602F09107021995FF91B0
:100BF000EF91BF91AF919F918F917F916F915F9195
:100C00004F913F912F910F900BBE0F900FBE0F9001
:100C10001F9018951F920F920FB60F9211240BB6CA
:100C20000F922F933F934F935F936F937F938F9385
:100C30009F93AF93BF93EF93FF93E0910402F091E2
:100C400005021995FF91EF91BF91AF919F918F91FF
:100C50007F916F915F914F913F912F910F900BBEBC
:100C60000F900FBE0F901F901895CF92DF92EF92CA
:100C7000FF920F931F93CF93DF936C017C0187E06A
:100C8000E80EF11CC0E0D0E0062F10E0B8010C2EF9
:100C900002C0759567950A94E2F76170F70181913A
:100CA0007F0194DD2196C430D10581F7C601DF9123
:100CB000CF911F910F91FF90EF90DF90CF90B4CD27
:100CC000CF92DF92EF92FF920F931F93CF93DF9318
:100CD000EC01F62E642F8C8179DD8D818F3F11F030
:100CE00060E074DD8F850F2D10E084FF23C06E015E
:100CF00087E0C80ED11CE12CF12CB8010E2C02C0EB
:100D0000759567950A94E2F76170F60181916F011C
:100D10005DDDFFEFEF1AFF0A88E0E816F10469F7DE
:100D2000CE01DF91CF911F910F91FF90EF90DF9057
:100D3000CF907ACDB80184E0759567958A95E1F7F3
:100D4000CE0193DF6F2DCE01DF91CF911F910F91D7
:100D5000FF90EF90DF90CF9088CF41E0B1DF81E04E
:100D600090E008958EBD00000DB407FEFDCF8EB556
:100D700008951F920F920FB60F9211240F900FBE7D
:100D80000F901F9018950895CF92DF92EF92FF92E7
:100D90000F931F93CF93DF936C017A018B01C0E017
:100DA000D0E0CE15DF0581F0D8016D918D01D6011F
:100DB000ED91FC910190F081E02DC6011995892BF0
:100DC00011F02196EECF7E01C701DF91CF911F91E7
:100DD0000F91FF90EF90DF90CF90089540E0682F43
:100DE00081E993E06DCFCF93DF93823028F090912B
:100DF000A00398609093A0038093A4031092A5038E
:100E000080E48093A60380E18093A70380E580932C
:100E1000A80361E0809195031ADD809196038F3FCE
:100E200011F061E014DD61E08091970310DDC1E90C
:100E3000D3E09E01215933408091A00384FD03C07B
:100E400084E090E002C088E090E0219628173907FE
:100E500024F461E08E81FBDCECCF8BE39DE0019715
:100E6000F1F760E080919503B1DC60E08091970339
:100E7000ADDC809196038F3F11F060E0A7DC80919C
:100E8000A00384FD1CC063E081E993E0EEDECBE4C7
:100E9000D6E4CE010197F1F763E081E993E0E5DE66
:100EA0002197F1F763E081E993E0DFDE83E592E0EB
:100EB0000197F1F762E081E993E0D7DE12C080622A
:100EC0008DDF8BE496E40197F1F78091A0038062B7
:100ED00085DF83E592E00197F1F78091A0038062BE
:100EE0007DDF8091A003806279DF84E08093A1039D
:100EF0008CE074DF81E072DF8BE39FE10197F1F713
:100F000082E08093A20386E0DF91CF9167CFE8EE85
:100F1000F2E0A089B18982E08C93A485B5851C920A
:100F2000A685B7858FEC8C93108EA489B58986E051
:100F30008C93A289B3898C9180618C93A289B389A7
:100F40008C9188608C93A289B3898C9180688C93F2
:100F50000288F389E02D80818F7D80830895CF936F
:100F6000DF939CB59F7D9CBD9CB5937F9CBD9CB53C
:100F70009C7F9CBD9DB591609DBDC9EAD3E0682F63
:100F80008A8124DC8C899D89DF91CF919CCC81E082
:100F9000E6CF80E0E4CFCF93FCDF81EEE3DEC82F25
:100FA000F6DF8C2FCF910895CF93C82FF2DF8C2FCF
:100FB0008F71D8DE8FEFD6DEC82FE9DF8C2FCF916F
:100FC0000895CF93DF93C82FD62FE3DF8C2F8F7137
:100FD0008062C8DEC82F8D2FC5DED9DF8C2FDF9150
:100FE000CF910895EF92FF920F931F93CF93DF93CA
:100FF000182F7B01C42FCDDF812F8F718062B2DE6D
:10100000D82F8701CC2331F0F80181918F01AADE1E
:10101000C150F8CFBCDF8D2FDF91CF911F910F9181
:10102000FF90EF9008952091A9033091AA03409179
:10103000AB035091AC032417350719F0682F822FAA
:10104000C5CB08958F929F92AF92BF92CF92DF92BD
:10105000EF92FF9243DC4B015C0185E0C82ED12C5E
:10106000E12CF12C3BDCDC01CB0188199909AA09A0
:10107000BB09883E9340A105B105A0F321E0C21A47
:10108000D108E108F10888EE880E83E0981EA11CC3
:10109000B11CC114D104E104F10421F7FF90EF90D9
:1010A000DF90CF90BF90AF909F908F90089580E099
:1010B0007BDF81FD05C0682F626080E082DFC2CFE8
:1010C0000895F5DF80E070DF682F616080E079DFF0
:1010D00060E787E076DF81E0A6DF8091B2038823B6
:1010E00039F04091B70362EB73E08AE07BDF10C018
:1010F00082E05ADFEEE2F3E0E49121E030E001C06B
:10110000220FEA95EAF72095622F682382E059DFE3
:101110008DE14ADF81FD3FCF08950F931F93CF9359
:101120008C0186E041DFC82FC77D0230110531F404
:10113000C0628BE990E0A0E0B0E00DC00130110585
:1011400029F085E590E0A0E0B0E005C0C86081E44A
:1011500090E0A0E0B0E08093B9039093BA03A0932D
:10116000BB03B093BC036C2F86E02BDF86E01CDF53
:1011700091E0C81390E0892FCF911F910F910895AE
:10118000EF92FF920F931F93CF93DF93EC017B01BC
:101190008A0188819981009729F02A813B8124174F
:1011A0003507F8F4B8016F5F7F4F0E947A110097FE
:1011B00059F0998388831B830A832C813D81232BDB
:1011C00081F4FC0110820DC088819981009711F093
:1011D0000E94F110198218821D821C821B821A82C1
:1011E00007C01D830C83B701888199810E94671213
:1011F000CE01DF91CF911F910F91FF90EF90089555
:10120000FC011182108213821282158214826115F0
:10121000710549F0FB0101900020E9F73197AF011A
:10122000461B570BADCF08956115710579F0FB0191
:1012300001900020E9F73197AF01461B570BDC0105
:10124000ED91FC910280F381E02D199480E090E013
:101250000895CF93DF93BC0188EE92E0E5DFEC01C7
:101260006DEC72E088EE92E0DFDF8C0F9D1FDF9166
:10127000CF9108958091850390918603B2D7809194
:101280008B0390918C03ADC7CF93DF93CDB7DEB7BF
:10129000A0970FB6F894DEBF0FBECDBF789484B58B
:1012A000826084BD84B5816084BD85B5826085BD62
:1012B00085B5816085BD80916E00816080936E00F0
:1012C00010928100809181008260809381008091E2
:1012D0008100816080938100809180008160809393
:1012E00080008091B10084608093B1008091B00053
:1012F00081608093B0008091910082608093910022
:101300008091910081608093910080919000816034
:10131000809390008091A10082608093A1008091D1
:10132000A10081608093A1008091A00081608093E2
:10133000A000809121018260809321018091210190
:101340008160809321018091200181608093200140
:1013500080917A00846080937A0080917A00826024
:1013600080937A0080917A00816080937A008091E6
:101370007A00806880937A001092C10061E08AE070
:1013800066DA61E08AE022DAC2DD82E02CDD80915B
:10139000A9039091AA032091AB033091AC0382176B
:1013A000930711F061E053DA8091AB039091AC03A5
:1013B0002091A9033091AA032817390711F061E0A1
:1013C00046DA1FB7F8948091DB02811123C0E1E176
:1013D000F3E08491EBECF2E09491E82FF0E0EE0F73
:1013E000FF1FE458FD4FA591B491EC91E92319F446
:1013F00061E085E3EBD961E085E329DA8CB58061B2
:101400008CBD8CB580648CBD61E084E320DA61E042
:1014100083E31DDA8091DB028F5F8093DB021FBFC5
:1014200080E001DE81E09BDD0DDE6CE080E0C9DD67
:101430006FE584E0C6DD82E090E06FDE882319F07E
:1014400081E08093AF0386E0AFDD80E090E065DE71
:10145000A0DD80E587DC83E785DC99DD60E08DE158
:10146000B0DD60E08CE1ADDD1092B10360E787E0B4
:10147000A8DD6CE485E0A5DD8CDD82EE73DC87DD24
:101480008ADD15DE80E090DD682F6E7F80E099DDDB
:1014900064E685E096DD8DE187DD682F66608DE18D
:1014A00090DD8CE181DD682F63608CE18ADD11E0E5
:1014B0001093B10382E090E030DE86E075DD887F36
:1014C000682F636086E07DDD8DE16EDD682F6460EE
:1014D0008DE177DD8CE168DD682F6F638CE171DD74
:1014E0001093B1034091B70360E272E08AE07ADDC5
:1014F0004091B70360E272E080E174DD6091B00377
:1015000081E15FDDE9E2F3E084914091B7036AE1B4
:1015100072E068DDE3E2F3E084916091B00351DDB5
:1015200082E042DDEFE2F3E0E49161E070E001C0CF
:10153000660FEA95EAF7682B82E043DDC2DD60E0E2
:1015400082E085D960E083E082D9E1DC8CE593E03C
:10155000909301028093000280916A0083608093DF
:101560006A00EC9A3DEA432E38E2532E612C712C2E
:101570007E0123E0E20EF11C4EE2C42E43E0D42EA5
:1015800087E112DD80FD07C087E10EDD80FFE3C04B
:101590000E94A202F5CF8091100290911102A091B9
:1015A0001202B0911302B7FF08C0109210021092FD
:1015B0001102109212021092130280911002909167
:1015C0001102A0911202B09113028E3A9842A10525
:1015D000B10544F040921002509211026092120242
:1015E00070921302609110027091110280911202A8
:1015F000909113023AD426E636E647EE51E4E5D45C
:101600004B015C0120E030E0A90129D487FD09C02D
:101610008092E4029092E502A092E602B092E70284
:1016200008C01092E4021092E5021092E6021092B5
:10163000E70220E030E044EB53E46091E402709173
:10164000E5028091E6029091E70227D5181664F42E
:1016500080E090E0A4EBB3E48093E4029093E50291
:10166000A093E602B093E70240E050E06FEC72E036
:101670008BE893E085DD6091E4027091E502809152
:10168000E6029091E7020CED12E022E047E07AD109
:10169000B801CE010196B4DD809185039091860357
:1016A000009781F069817A816115710551F040914F
:1016B0008703509188032D813E814217530708F01C
:1016C00042C08FD589819A81909386038093850348
:1016D0008B819C8190938803809387038D819E8169
:1016E00090938A03809389031A82198289819A814F
:1016F00078D5E1E08091A4038111E0E0E195F0E08C
:10170000EF56FC4F8489806869DB64E472E081E90C
:1017100093E08ADDE091A403E23010F4E15001C0CF
:10172000E1E0F0E0EF56FC4F8489806857DB4091A0
:10173000890350918A03609185037091860381E942
:1017400093E022DB1DCFC3D68D819E8190938A03C7
:1017500080938903CBCF1A821982F7012EE111926F
:101760002A95E9F78091B003803218F020E2222E0A
:1017700001C0282E9091B103911103C0382E321868
:1017800001C0312C06DC81E6EDDA8E010F5F1F4FC0
:1017900048012A94FFEF2F1631F08FEFE3DAF801BA
:1017A00081938F01F6CF332021F08FEFDBDA3A946B
:1017B000FACFEDDB60E787E004DC8981813409F052
:1017C00062C08A818A3509F05EC08B81833209F05C
:1017D0005AC080E028DC8091B9039091BA0373D895
:1017E0008DE1E2DB81FF06C08091B9039091BA03DD
:1017F0006AD8D1DB80E0D8DB682F6E7F80E0E1DB48
:1018000082E0D2DBF601949121E030E001C0220FAA
:101810009A95EAF7682F622B82E0D3DB8091B003C0
:10182000282E893010F098E0292E9091B103911163
:1018300003C0382E321801C0312CABDB80EA92DABB
:101840000CED12E02A94FFEF2F1629F0F801819198
:101850008F0188DAF7CF332021F080E083DA3A94E1
:10186000FACF95DB81E0DFDB94DB8FEF7BDA182F9B
:101870008EDB1073C9F380E0D6DB60E787E0A1DB85
:1018800084FD89DB1EDC66E572E088EE92E0CCDC4C
:10189000C401DFDC69E772E088EE92E0C5DC8CED24
:1018A00092E0D7DC86EA92E0D4DC72CEE8EEF2E099
:1018B0001382128288EE93E0A0E0B0E084839583E7
:1018C000A683B7838AE292E09183808385EC90E0DF
:1018D0009587848784EC90E09787868780EC90E0FA
:1018E000918B808B81EC90E0938B828B82EC90E0EB
:1018F000958B848B86EC90E0978B868B118E128E65
:10190000138E148EE9EAF3E087E090E09183808300
:1019100088E090E093838283168280E2878310863A
:1019200085E0868785E090E0A0E0B0E0848B958B31
:10193000A68BB78B1186E1E9F3E0138212828CE368
:1019400092E0918380838BE184838FEF85838AE1AA
:10195000868389E1878388E1808787E1818786E1C3
:1019600082871386148615861686178681E03BDAF1
:101970006FEC72E08BE893E043DC6FEC72E085E89B
:1019800093E03ECCEF920F931F93CF93DF93E80148
:1019900047FD02C034E001C034E1042E000C550BB9
:1019A00057FF03C0519541955109E32E022F242F73
:1019B000AE0107D0CE01DF91CF911F910F91EF9033
:1019C00008958F929F92AF92BF92CF92DF92EF9243
:1019D000FF920F931F93CF93DF93CDB7DEB7299775
:1019E0000FB6F894DEBF0FBECDBF6A01122FB02E26
:1019F0002BE3201720F0FF24F394F00E02C02CE319
:101A0000F22E0F2D27E0AE014F5F5F4F50D1BC018A
:101A10004981842F8970813031F0E1FC06C0E0FEFD
:101A200006C090E205C09DE203C09BE201C090E0C9
:101A30005E2D507143FF3CC0911102C083E001C094
:101A400084E0811718F4212F281B01C020E05111D8
:101A50000BC0F601822F30E2882319F031938150B8
:101A6000FBCFC20ED11C20E0992329F0D6019C9314
:101A7000F60131966F01C6010396E2FE0AC03EE40C
:101A8000D6013C9341E411964C93119712963C93E6
:101A900006C03EE6F601308341E641833283FC0115
:101AA000322F40E2332309F442C041933150FACF40
:101AB00042FF44C0911102C083E001C084E081175D
:101AC00018F4212F281B01C020E051110BC0F60192
:101AD000822F30E2882319F031938150FBCFC20E60
:101AE000D11C20E0992329F0D6019C93F601319670
:101AF0006F01C6010396E2FE0BC039E4D6013C93A8
:101B00003EE411963C93119736E412963C9307C03D
:101B100039E6F60130833EE6318336E63283FC0156
:101B2000322F40E2332319F041933150FBCFFC01B7
:101B3000E20FF11D10828EEF9FEFA6C021E030E092
:101B4000911102C020E030E0161617061CF4FB01CC
:101B5000319602C0E1E0F0E02E0F3F1FBB2021F0E4
:101B6000EB2DF0E0319602C0E0E0F0E02E0F3F1FD9
:101B7000E12FF0E02E173F071CF4121B212F01C0AC
:101B800020E08E2D887159F4F601822F30E28823EF
:101B900019F031938150FBCFC20ED11C20E0992364
:101BA00029F0D6019C93F60131966F0151110BC0BB
:101BB000F601822F90E3882319F091938150FBCF97
:101BC000C20ED11C20E00F2D060F9A81342F3071E8
:101BD00044FF03C0913309F40150101624F4093076
:101BE00018F008E001C001E0AB0177FF02C040E05F
:101BF00050E0FB01E41BF50BA1E0B0E0AC0FBD1F12
:101C0000EA0FFB1F8EE2A82E4B01801A91080B2DC4
:101C100010E01195019511094F3FBFEF5B0721F4CB
:101C2000D601AC9211966D01641775072CF08416DD
:101C3000950614F4818101C080E341505109319629
:101C4000D60111967D014017510724F0D6018C93DF
:101C50006701E2CF6417750739F4963320F49533A2
:101C600019F4311101C081E3F6018083F701822F5D
:101C700090E2882319F091938150FBCFF701E20F96
:101C8000F11D108280E090E029960FB6F894DEBF37
:101C90000FBECDBFDF91CF911F910F91FF90EF90BD
:101CA000DF90CF90BF90AF909F908F900895283095
:101CB00008F027E03327DA01990F311D87FD916085
:101CC00000966105710539F432602E5F3D9330E373
:101CD0002A95E1F708959F3F30F08038710561053E
:101CE00009F03C5F3C5F3D93913008F08068911DA6
:101CF000DF93CF931F930F93FF92EF92192F987F4B
:101D00009695E92F96959695E90FFF27EE59FE4F88
:101D100099273327EE24FF24A701E70105900894B3
:101D2000079428F4360FE71EF81E491F511D660F51
:101D3000771F881F991F0694A1F70590079428F430
:101D4000E70EF81E491F561FC11D770F881F991FE8
:101D5000661F0694A1F70590079428F4F80E491F12
:101D6000561FC71FD11D880F991F661F771F069426
:101D7000A1F70590079420F4490F561FC71FD81FDD
:101D8000990F661F771F881F0694A9F784911095F5
:101D9000177041F0D695C79557954795F794E794F6
:101DA0001A95C1F7E8E0F1E0689415901591359126
:101DB0006591959105907FE27395E118F10A430BC7
:101DC000560BC90BD009C0F7E10CF11E431F561F7B
:101DD000C91FD01D7EF4703311F48A95E6CFE894C4
:101DE000015030F0080F0AF40027021708F4202FE2
:101DF0002395022F7A3328F079E37D932A95E9F72A
:101E000010C07D932A9589F6069497956795379526
:101E100017951794E118F10A430B560BC90BD0091B
:101E200098F023957E9173957A3308F070E37C9354
:101E30002013B8F77E9170617D9330F0839571E344
:101E40007D9370E32A95E1F71124EF90FF900F91B5
:101E50001F91CF91DF91992787FD9095089540D0EC
:101E600008F481E00895E89409C097FB3EF490954A
:101E70008095709561957F4F8F4F9F4F9923A9F063
:101E8000F92F96E9BB279395F695879577956795F2
:101E9000B795F111F8CFFAF4BB0F11F460FF1BC036
:101EA0006F5F7F4F8F4F9F4F16C0882311F096E9C9
:101EB00011C0772321F09EE8872F762F05C0662377
:101EC00071F096E8862F70E060E02AF09A95660F30
:101ED000771F881FDAF7880F9695879597F90895E9
:101EE000990F0008550FAA0BE0E8FEEF161617062B
:101EF000E807F907C0F012161306E407F50798F093
:101F0000621B730B840B950B39F40A2661F0232BAB
:101F1000242B252B21F408950A2609F4A140A69527
:101F20008FEF811D811D089597F99F6780E870E00C
:101F300060E008959FEF80EC089500240A9416163F
:101F4000170618060906089500240A9412161306A7
:101F5000140605060895092E0394000C11F4882335
:101F600052F0BB0F40F4BF2B11F460FF04C06F5F51
:101F70007F4F8F4F9F4F089557FD9058440F551F27
:101F800059F05F3F71F04795880F97FB991F61F0FB
:101F90009F3F79F087950895121613061406551F72
:101FA000F2CF4695F1DF08C0161617061806991FDE
:101FB000F1CF86957105610508940895E894BB27D3
:101FC00066277727CB0197F908950CD0C4CFBCDFE3
:101FD00040F0B3DF30F021F45F3F19F0A5CF51118D
:101FE000EECFA8CFC9DF98F39923C9F35523B1F3F6
:101FF000951B550BBB27AA2762177307840738F078
:102000009F5F5F4F220F331F441FAA1FA9F333D0D6
:102010000E2E3AF0E0E830D091505040E695001C8A
:10202000CAF729D0FE2F27D0660F771F881FBB1F46
:10203000261737074807AB07B0E809F0BB0B802D20
:10204000BF01FF2793585F4F2AF09E3F510568F06C
:102050006BCFB5CF5F3FECF3983EDCF38695779579
:102060006795B795F7959F5FC9F7880F911D96956E
:10207000879597F90895E1E0660F771F881FBB1FCA
:10208000621773078407BA0720F0621B730B840B77
:10209000BA0BEE1F88F7E095089522DF08F48FEF62
:1020A0000895EE0FFF1F881F8BBF0790F691E02D5C
:1020B00019940F931F93CF93DF938230910510F4FF
:1020C00082E090E0E091C303F091C40320E030E0AF
:1020D000A0E0B0E0309719F1408151810281138175
:1020E00048175907C8F08417950769F4109731F01D
:1020F00012960C93129713961C9327C00093C30358
:102100001093C40322C02115310519F0421753075B
:1021100018F49A01BD01EF01DF01F801DBCF2115B1
:102120003105F9F0281B390B2430310580F48A8100
:102130009B816115710521F0FB019383828304C0AB
:102140009093C4038093C303FE01329644C0FE0102
:10215000E20FF31F81939193225031093983288331
:102160003AC02091C1033091C203232B41F4209146
:102170001602309117023093C2032093C1032091BD
:102180001402309115022115310541F42DB73EB7E7
:102190004091180250911902241B350BE091C103A4
:1021A000F091C203E217F307A0F42E1B3F0B281790
:1021B000390778F0AC014E5F5F4F2417350748F0C0
:1021C0004E0F5F1F5093C2034093C10381939193BD
:1021D00002C0E0E0F0E0CF01DF91CF911F910F91BD
:1021E0000895CF93DF93009709F481C0FC013297E3
:1021F00013821282A091C303B091C403109781F49B
:1022000020813181820F931F2091C1033091C2033D
:102210002817390751F5F093C203E093C10367C053
:10222000ED0120E030E0CE17DF0740F44A815B810A
:102230009E0141155105F1F0EA01F5CFD383C28328
:1022400040815181840F951FC817D90759F488819F
:102250009981840F951F0296918380838A819B8147
:10226000938382832115310529F4F093C403E0930D
:10227000C3033DC0E901FB83EA8349915991C40F2F
:10228000D51FEC17FD0761F480819181840F951FA4
:102290000296E90199838883828193819B838A8353
:1022A000E0E0F0E012968D919C911397009719F061
:1022B000FD01DC01F7CF8D919C9111979D012E5F5F
:1022C0003F4F820F931F2091C1033091C203281703
:1022D000390769F4309729F41092C4031092C303AC
:1022E00002C013821282B093C203A093C103DF9194
:1022F000CF9108956F927F928F929F92AF92BF92EB
:10230000CF92DF92EF92FF920F931F93CF93DF93C1
:10231000009781F4CB01DF91CF911F910F91FF9036
:10232000EF90DF90CF90BF90AF909F908F907F9075
:102330006F90BFCEFC01E60FF71F9C0122503109C0
:10234000E217F30708F4A5C0EC01D9010D911C9127
:10235000119706171707A8F00530110508F497C064
:10236000C80104978617970708F491C00250110915
:10237000061B170B019311936D937C93CF0131DFF3
:1023800086C05B01A01AB10A4C01800E911EA0917B
:10239000C303B091C403612C712CE12CF12C109774
:1023A00009F446C08D919C911197A815B905B1F516
:1023B0006C0142E0C40ED11CCA14DB0478F14C015C
:1023C0008A189B08640142E0C40ED11C1296BC908E
:1023D00012971396AC91B5E0CB16D10440F0B282BF
:1023E000A38391828082D9016D937C9309C00E5F93
:1023F0001F4F800F911FF90191838083EB2DFA2FDE
:10240000E114F10431F0D7011396FC93EE93129787
:102410003EC0F093C403E093C30339C06816790645
:1024200008F43C017D0112960D90BC91A02DB7CF10
:102430008091C1039091C20388169906E1F4661653
:102440007706C8F48091140290911502009741F428
:102450008DB79EB74091180250911902841B950BBD
:10246000E817F907B0F4F093C203E093C103F90150
:10247000718360830CC0CB011CDE7C01009749F0A6
:10248000A801BE011BD0CE01ACDEC70104C0CE0145
:1024900002C080E090E0DF91CF911F910F91FF90FB
:1024A000EF90DF90CF90BF90AF909F908F907F90F4
:1024B0006F90089581E090E0F89410C0FB01DC017A
:1024C00002C001900D9241505040D8F70895FB0191
:1024D000DC0101900D920020E1F7089511E0CBE9B5
:1024E000D1E000E005C0802FFE01DBDD2196011D5B
:0E24F000CC39D10780E00807B1F7F894FFCF90
:1024FE0058035803580358035803580358035803F6
:10250E00561400000000C5038000656E636F647290
:10251E006D6173747200000000003502C406CD01B7
:10252E008102FE01DC01F00100000000AD06C406D0
:10253E005903C30641637475616C20417A696D75E8
:10254E007468203A2000546865207465787420728F
:10255E00656365697665642066726F6D204D737470
:10256E006572207761733A200074686520417A693C
:10257E006D7574682076616C756520726574757200
:10258E006E656420746F20746865206D6173746568
:10259E007220697320002D2D2D2D2D2D2D2D2D2DDD
:1025AE002D2D2D2D2D2D2D2D2D2D2D2D2D2D2D2D4D
:1025BE002D2D2D2D2D2D2D2D2D2D2D2D000D0A00DA
:00000001FF
